{
  "contractName": "MissingPersonsManagement",
  "abi": [
    {
      "inputs": [],
      "stateMutability": "nonpayable",
      "type": "constructor"
    },
    {
      "anonymous": false,
      "inputs": [
        {
          "indexed": false,
          "internalType": "uint256",
          "name": "serialNumber",
          "type": "uint256"
        },
        {
          "indexed": false,
          "internalType": "address",
          "name": "investigator",
          "type": "address"
        }
      ],
      "name": "InvestigatorAssigned",
      "type": "event"
    },
    {
      "anonymous": false,
      "inputs": [
        {
          "indexed": false,
          "internalType": "uint256",
          "name": "serialNumber",
          "type": "uint256"
        },
        {
          "indexed": false,
          "internalType": "string",
          "name": "name",
          "type": "string"
        },
        {
          "indexed": false,
          "internalType": "string",
          "name": "urgency",
          "type": "string"
        },
        {
          "indexed": false,
          "internalType": "address",
          "name": "reporter",
          "type": "address"
        }
      ],
      "name": "MissingPersonAdded",
      "type": "event"
    },
    {
      "anonymous": false,
      "inputs": [
        {
          "indexed": true,
          "internalType": "address",
          "name": "user",
          "type": "address"
        },
        {
          "indexed": false,
          "internalType": "string",
          "name": "message",
          "type": "string"
        },
        {
          "indexed": false,
          "internalType": "string",
          "name": "roleName",
          "type": "string"
        }
      ],
      "name": "UserRegistered",
      "type": "event"
    },
    {
      "inputs": [
        {
          "internalType": "uint256",
          "name": "",
          "type": "uint256"
        }
      ],
      "name": "adminList",
      "outputs": [
        {
          "internalType": "address",
          "name": "",
          "type": "address"
        }
      ],
      "stateMutability": "view",
      "type": "function",
      "constant": true
    },
    {
      "inputs": [
        {
          "internalType": "uint256",
          "name": "",
          "type": "uint256"
        }
      ],
      "name": "allAreas",
      "outputs": [
        {
          "internalType": "string",
          "name": "",
          "type": "string"
        }
      ],
      "stateMutability": "view",
      "type": "function",
      "constant": true
    },
    {
      "inputs": [
        {
          "internalType": "uint256",
          "name": "",
          "type": "uint256"
        }
      ],
      "name": "appointments",
      "outputs": [
        {
          "internalType": "uint256",
          "name": "caseId",
          "type": "uint256"
        },
        {
          "internalType": "string",
          "name": "slot",
          "type": "string"
        },
        {
          "internalType": "address",
          "name": "reporter",
          "type": "address"
        },
        {
          "internalType": "address",
          "name": "admin",
          "type": "address"
        }
      ],
      "stateMutability": "view",
      "type": "function",
      "constant": true
    },
    {
      "inputs": [
        {
          "internalType": "string",
          "name": "",
          "type": "string"
        }
      ],
      "name": "areaWiseCount",
      "outputs": [
        {
          "internalType": "uint256",
          "name": "",
          "type": "uint256"
        }
      ],
      "stateMutability": "view",
      "type": "function",
      "constant": true
    },
    {
      "inputs": [
        {
          "internalType": "string",
          "name": "",
          "type": "string"
        }
      ],
      "name": "isAreaAdded",
      "outputs": [
        {
          "internalType": "bool",
          "name": "",
          "type": "bool"
        }
      ],
      "stateMutability": "view",
      "type": "function",
      "constant": true
    },
    {
      "inputs": [
        {
          "internalType": "string",
          "name": "",
          "type": "string"
        }
      ],
      "name": "isSlotBooked",
      "outputs": [
        {
          "internalType": "bool",
          "name": "",
          "type": "bool"
        }
      ],
      "stateMutability": "view",
      "type": "function",
      "constant": true
    },
    {
      "inputs": [],
      "name": "missingPersonCount",
      "outputs": [
        {
          "internalType": "uint256",
          "name": "",
          "type": "uint256"
        }
      ],
      "stateMutability": "view",
      "type": "function",
      "constant": true
    },
    {
      "inputs": [
        {
          "internalType": "uint256",
          "name": "",
          "type": "uint256"
        }
      ],
      "name": "missingPersons",
      "outputs": [
        {
          "internalType": "uint256",
          "name": "serialNumber",
          "type": "uint256"
        },
        {
          "internalType": "string",
          "name": "name",
          "type": "string"
        },
        {
          "internalType": "uint256",
          "name": "age",
          "type": "uint256"
        },
        {
          "internalType": "uint256",
          "name": "height",
          "type": "uint256"
        },
        {
          "internalType": "string",
          "name": "status",
          "type": "string"
        },
        {
          "internalType": "string",
          "name": "description",
          "type": "string"
        },
        {
          "internalType": "string",
          "name": "lastSeenLocation",
          "type": "string"
        },
        {
          "internalType": "string",
          "name": "relativeContact",
          "type": "string"
        },
        {
          "internalType": "string",
          "name": "urgency",
          "type": "string"
        },
        {
          "internalType": "address",
          "name": "reporter",
          "type": "address"
        },
        {
          "internalType": "address",
          "name": "assignedInvestigator",
          "type": "address"
        }
      ],
      "stateMutability": "view",
      "type": "function",
      "constant": true
    },
    {
      "inputs": [],
      "name": "owner",
      "outputs": [
        {
          "internalType": "address",
          "name": "",
          "type": "address"
        }
      ],
      "stateMutability": "view",
      "type": "function",
      "constant": true
    },
    {
      "inputs": [
        {
          "internalType": "address",
          "name": "",
          "type": "address"
        }
      ],
      "name": "users",
      "outputs": [
        {
          "internalType": "string",
          "name": "nid",
          "type": "string"
        },
        {
          "internalType": "string",
          "name": "name",
          "type": "string"
        },
        {
          "internalType": "enum MissingPersonsManagement.Role",
          "name": "role",
          "type": "uint8"
        },
        {
          "internalType": "address",
          "name": "addr",
          "type": "address"
        }
      ],
      "stateMutability": "view",
      "type": "function",
      "constant": true
    },
    {
      "inputs": [
        {
          "internalType": "string",
          "name": "nid",
          "type": "string"
        },
        {
          "internalType": "string",
          "name": "name",
          "type": "string"
        },
        {
          "internalType": "enum MissingPersonsManagement.Role",
          "name": "role",
          "type": "uint8"
        }
      ],
      "name": "registerUser",
      "outputs": [],
      "stateMutability": "nonpayable",
      "type": "function"
    },
    {
      "inputs": [],
      "name": "getMyRole",
      "outputs": [
        {
          "internalType": "enum MissingPersonsManagement.Role",
          "name": "",
          "type": "uint8"
        }
      ],
      "stateMutability": "view",
      "type": "function",
      "constant": true
    },
    {
      "inputs": [],
      "name": "getMyRoleUint",
      "outputs": [
        {
          "internalType": "uint256",
          "name": "",
          "type": "uint256"
        }
      ],
      "stateMutability": "view",
      "type": "function",
      "constant": true
    },
    {
      "inputs": [
        {
          "internalType": "address",
          "name": "userAddr",
          "type": "address"
        }
      ],
      "name": "getUser",
      "outputs": [
        {
          "internalType": "string",
          "name": "",
          "type": "string"
        },
        {
          "internalType": "string",
          "name": "",
          "type": "string"
        },
        {
          "internalType": "enum MissingPersonsManagement.Role",
          "name": "",
          "type": "uint8"
        },
        {
          "internalType": "address",
          "name": "",
          "type": "address"
        }
      ],
      "stateMutability": "view",
      "type": "function",
      "constant": true
    },
    {
      "inputs": [
        {
          "internalType": "address",
          "name": "userAddr",
          "type": "address"
        }
      ],
      "name": "isRegistered",
      "outputs": [
        {
          "internalType": "bool",
          "name": "",
          "type": "bool"
        }
      ],
      "stateMutability": "view",
      "type": "function",
      "constant": true
    },
    {
      "inputs": [
        {
          "internalType": "string",
          "name": "name",
          "type": "string"
        },
        {
          "internalType": "uint256",
          "name": "age",
          "type": "uint256"
        },
        {
          "internalType": "uint256",
          "name": "height",
          "type": "uint256"
        },
        {
          "internalType": "string",
          "name": "description",
          "type": "string"
        },
        {
          "internalType": "string",
          "name": "lastSeenLocation",
          "type": "string"
        },
        {
          "internalType": "string",
          "name": "relativeContact",
          "type": "string"
        }
      ],
      "name": "addMissingPerson",
      "outputs": [],
      "stateMutability": "nonpayable",
      "type": "function"
    },
    {
      "inputs": [
        {
          "internalType": "uint256",
          "name": "serialNumber",
          "type": "uint256"
        }
      ],
      "name": "getMissingPerson",
      "outputs": [
        {
          "internalType": "string",
          "name": "",
          "type": "string"
        },
        {
          "internalType": "uint256",
          "name": "",
          "type": "uint256"
        },
        {
          "internalType": "string",
          "name": "",
          "type": "string"
        },
        {
          "internalType": "string",
          "name": "",
          "type": "string"
        },
        {
          "internalType": "address",
          "name": "",
          "type": "address"
        }
      ],
      "stateMutability": "view",
      "type": "function",
      "constant": true
    },
    {
      "inputs": [
        {
          "internalType": "uint256",
          "name": "serialNumber",
          "type": "uint256"
        },
        {
          "internalType": "string",
          "name": "newStatus",
          "type": "string"
        }
      ],
      "name": "updateMissingPersonStatus",
      "outputs": [],
      "stateMutability": "nonpayable",
      "type": "function"
    },
    {
      "inputs": [],
      "name": "getAllMissingPersons",
      "outputs": [
        {
          "internalType": "uint256[]",
          "name": "ids",
          "type": "uint256[]"
        },
        {
          "internalType": "string[]",
          "name": "names",
          "type": "string[]"
        },
        {
          "internalType": "uint256[]",
          "name": "ages",
          "type": "uint256[]"
        },
        {
          "internalType": "uint256[]",
          "name": "heights",
          "type": "uint256[]"
        },
        {
          "internalType": "string[]",
          "name": "descriptions",
          "type": "string[]"
        },
        {
          "internalType": "string[]",
          "name": "lastSeenLocations",
          "type": "string[]"
        },
        {
          "internalType": "string[]",
          "name": "relativeContacts",
          "type": "string[]"
        },
        {
          "internalType": "string[]",
          "name": "statuses",
          "type": "string[]"
        },
        {
          "internalType": "address[]",
          "name": "investigators",
          "type": "address[]"
        }
      ],
      "stateMutability": "view",
      "type": "function",
      "constant": true
    },
    {
      "inputs": [
        {
          "internalType": "uint256",
          "name": "caseId",
          "type": "uint256"
        },
        {
          "internalType": "address",
          "name": "investigator",
          "type": "address"
        }
      ],
      "name": "assignInvestigator",
      "outputs": [],
      "stateMutability": "nonpayable",
      "type": "function"
    },
    {
      "inputs": [],
      "name": "getAreaWiseCounts",
      "outputs": [
        {
          "internalType": "string[]",
          "name": "",
          "type": "string[]"
        },
        {
          "internalType": "uint256[]",
          "name": "",
          "type": "uint256[]"
        }
      ],
      "stateMutability": "view",
      "type": "function",
      "constant": true
    },
    {
      "inputs": [
        {
          "internalType": "uint256",
          "name": "caseId",
          "type": "uint256"
        },
        {
          "internalType": "string",
          "name": "slot",
          "type": "string"
        },
        {
          "internalType": "address",
          "name": "admin",
          "type": "address"
        }
      ],
      "name": "bookAppointment",
      "outputs": [],
      "stateMutability": "payable",
      "type": "function",
      "payable": true
    },
    {
      "inputs": [],
      "name": "getBookedSlots",
      "outputs": [
        {
          "internalType": "string[]",
          "name": "",
          "type": "string[]"
        }
      ],
      "stateMutability": "view",
      "type": "function",
      "constant": true
    },
    {
      "inputs": [],
      "name": "getAllAdmins",
      "outputs": [
        {
          "internalType": "address[]",
          "name": "",
          "type": "address[]"
        }
      ],
      "stateMutability": "view",
      "type": "function",
      "constant": true
    }
  ],
  "bytecode": "0x6080604052600060045534801561001557600080fd5b50336000806101000a81548173ffffffffffffffffffffffffffffffffffffffff021916908373ffffffffffffffffffffffffffffffffffffffff160217905550614c81806100656000396000f3fe60806040526004361061014a5760003560e01c8063978af04c116100b6578063c3c5a5471161006f578063c3c5a54714610506578063d93d203114610543578063dc32a81e1461056f578063e9523c9714610598578063ee5a64ed146105c3578063f5a38aaf146105df5761014a565b8063978af04c146103b5578063a87430ba146103e0578063ac0b3f3314610420578063b191d4181461044b578063b8af6cf91461048c578063c00dd8b4146104c95761014a565b806324b2e0dc1161010857806324b2e0dc146102a25780632e17a931146102cd5780635f77d760146102f65780636e3b47fc1461031f5780636f77926b1461034a5780638da5cb5b1461038a5761014a565b80626cba8d1461014f578063032133741461018c5780630bf4cfe6146101bf57806311117fc8146101e857806312dc9013146102255780631cb7503b14610265575b600080fd5b34801561015b57600080fd5b50610176600480360381019061017191906133f2565b610626565b6040516101839190613456565b60405180910390f35b34801561019857600080fd5b506101a161065c565b6040516101b69998979695949392919061376a565b60405180910390f35b3480156101cb57600080fd5b506101e660048036038101906101e19190613862565b610db7565b005b3480156101f457600080fd5b5061020f600480360381019061020a91906138be565b611009565b60405161021c91906138fa565b60405180910390f35b34801561023157600080fd5b5061024c600480360381019061024791906138be565b611048565b60405161025c949392919061396e565b60405180910390f35b34801561027157600080fd5b5061028c600480360381019061028791906138be565b611150565b60405161029991906139ba565b60405180910390f35b3480156102ae57600080fd5b506102b76111fc565b6040516102c491906139dc565b60405180910390f35b3480156102d957600080fd5b506102f460048036038101906102ef9190613a1c565b611265565b005b34801561030257600080fd5b5061031d60048036038101906103189190613aa7565b61151e565b005b34801561032b57600080fd5b506103346119c8565b6040516103419190613c1b565b60405180910390f35b34801561035657600080fd5b50610371600480360381019061036c9190613c62565b611a1f565b6040516103819493929190613c8f565b60405180910390f35b34801561039657600080fd5b5061039f611c4c565b6040516103ac91906138fa565b60405180910390f35b3480156103c157600080fd5b506103ca611c70565b6040516103d791906139dc565b60405180910390f35b3480156103ec57600080fd5b5061040760048036038101906104029190613c62565b611c76565b6040516104179493929190613c8f565b60405180910390f35b34801561042c57600080fd5b50610435611de3565b6040516104429190613ce2565b60405180910390f35b34801561045757600080fd5b50610472600480360381019061046d91906138be565b611f34565b604051610483959493929190613d04565b60405180910390f35b34801561049857600080fd5b506104b360048036038101906104ae91906133f2565b6123c4565b6040516104c091906139dc565b60405180910390f35b3480156104d557600080fd5b506104f060048036038101906104eb91906133f2565b6123f2565b6040516104fd9190613456565b60405180910390f35b34801561051257600080fd5b5061052d60048036038101906105289190613c62565b612428565b60405161053a9190613456565b60405180910390f35b34801561054f57600080fd5b506105586124a8565b604051610566929190613d6c565b60405180910390f35b34801561057b57600080fd5b5061059660048036038101906105919190613da3565b61265b565b005b3480156105a457600080fd5b506105ad6128a9565b6040516105ba9190613de3565b60405180910390f35b6105dd60048036038101906105d89190613e05565b612937565b005b3480156105eb57600080fd5b50610606600480360381019061060191906138be565b612d54565b60405161061d9b9a99989796959493929190613e74565b60405180910390f35b6003818051602081018201805184825260208301602085012081835280955050505050506000915054906101000a900460ff1681565b6060806060806060806060806060600060045490508067ffffffffffffffff81111561068b5761068a6132c7565b5b6040519080825280602002602001820160405280156106b95781602001602082028036833780820191505090505b5099508067ffffffffffffffff8111156106d6576106d56132c7565b5b60405190808252806020026020018201604052801561070957816020015b60608152602001906001900390816106f45790505b5098508067ffffffffffffffff811115610726576107256132c7565b5b6040519080825280602002602001820160405280156107545781602001602082028036833780820191505090505b5097508067ffffffffffffffff811115610771576107706132c7565b5b60405190808252806020026020018201604052801561079f5781602001602082028036833780820191505090505b5096508067ffffffffffffffff8111156107bc576107bb6132c7565b5b6040519080825280602002602001820160405280156107ef57816020015b60608152602001906001900390816107da5790505b5095508067ffffffffffffffff81111561080c5761080b6132c7565b5b60405190808252806020026020018201604052801561083f57816020015b606081526020019060019003908161082a5790505b5094508067ffffffffffffffff81111561085c5761085b6132c7565b5b60405190808252806020026020018201604052801561088f57816020015b606081526020019060019003908161087a5790505b5093508067ffffffffffffffff8111156108ac576108ab6132c7565b5b6040519080825280602002602001820160405280156108df57816020015b60608152602001906001900390816108ca5790505b5092508067ffffffffffffffff8111156108fc576108fb6132c7565b5b60405190808252806020026020018201604052801561092a5781602001602082028036833780820191505090505b50915060005b81811015610daa5760006001826109479190613f78565b9050600060056000838152602001908152602001600020905080600001548d848151811061097857610977613fac565b5b6020026020010181815250508060010180546109939061400a565b80601f01602080910402602001604051908101604052809291908181526020018280546109bf9061400a565b8015610a0c5780601f106109e157610100808354040283529160200191610a0c565b820191906000526020600020905b8154815290600101906020018083116109ef57829003601f168201915b50505050508c8481518110610a2457610a23613fac565b5b602002602001018190525080600201548b8481518110610a4757610a46613fac565b5b60200260200101818152505080600301548a8481518110610a6b57610a6a613fac565b5b602002602001018181525050806005018054610a869061400a565b80601f0160208091040260200160405190810160405280929190818152602001828054610ab29061400a565b8015610aff5780601f10610ad457610100808354040283529160200191610aff565b820191906000526020600020905b815481529060010190602001808311610ae257829003601f168201915b5050505050898481518110610b1757610b16613fac565b5b6020026020010181905250806006018054610b319061400a565b80601f0160208091040260200160405190810160405280929190818152602001828054610b5d9061400a565b8015610baa5780601f10610b7f57610100808354040283529160200191610baa565b820191906000526020600020905b815481529060010190602001808311610b8d57829003601f168201915b5050505050888481518110610bc257610bc1613fac565b5b6020026020010181905250806007018054610bdc9061400a565b80601f0160208091040260200160405190810160405280929190818152602001828054610c089061400a565b8015610c555780601f10610c2a57610100808354040283529160200191610c55565b820191906000526020600020905b815481529060010190602001808311610c3857829003601f168201915b5050505050878481518110610c6d57610c6c613fac565b5b6020026020010181905250806004018054610c879061400a565b80601f0160208091040260200160405190810160405280929190818152602001828054610cb39061400a565b8015610d005780601f10610cd557610100808354040283529160200191610d00565b820191906000526020600020905b815481529060010190602001808311610ce357829003601f168201915b5050505050868481518110610d1857610d17613fac565b5b602002602001018190525080600a0160009054906101000a900473ffffffffffffffffffffffffffffffffffffffff16858481518110610d5b57610d5a613fac565b5b602002602001019073ffffffffffffffffffffffffffffffffffffffff16908173ffffffffffffffffffffffffffffffffffffffff168152505050508080610da29061403b565b915050610930565b5050909192939495969798565b60016003811115610dcb57610dca613ba4565b5b600160003373ffffffffffffffffffffffffffffffffffffffff1673ffffffffffffffffffffffffffffffffffffffff16815260200190815260200160002060020160009054906101000a900460ff166003811115610e2d57610e2c613ba4565b5b14610e6d576040517f08c379a0000000000000000000000000000000000000000000000000000000008152600401610e64906140cf565b60405180910390fd5b60006005600084815260200190815260200160002090506000816001018054610e959061400a565b905003610ed7576040517f08c379a0000000000000000000000000000000000000000000000000000000008152600401610ece9061413b565b60405180910390fd5b6040518060400160405280600581526020017f666f756e640000000000000000000000000000000000000000000000000000008152508051906020012081600401604051610f2591906141fe565b604051809103902003610f6d576040517f08c379a0000000000000000000000000000000000000000000000000000000008152600401610f6490614261565b60405180910390fd5b6040518060400160405280600581526020017f666f756e6400000000000000000000000000000000000000000000000000000081525080519060200120828051906020012014610ff2576040517f08c379a0000000000000000000000000000000000000000000000000000000008152600401610fe9906142f3565b60405180910390fd5b8181600401908161100391906144bf565b50505050565b6009818154811061101957600080fd5b906000526020600020016000915054906101000a900473ffffffffffffffffffffffffffffffffffffffff1681565b6002818154811061105857600080fd5b90600052602060002090600402016000915090508060000154908060010180546110819061400a565b80601f01602080910402602001604051908101604052809291908181526020018280546110ad9061400a565b80156110fa5780601f106110cf576101008083540402835291602001916110fa565b820191906000526020600020905b8154815290600101906020018083116110dd57829003601f168201915b5050505050908060020160009054906101000a900473ffffffffffffffffffffffffffffffffffffffff16908060030160009054906101000a900473ffffffffffffffffffffffffffffffffffffffff16905084565b6007818154811061116057600080fd5b90600052602060002001600091509050805461117b9061400a565b80601f01602080910402602001604051908101604052809291908181526020018280546111a79061400a565b80156111f45780601f106111c9576101008083540402835291602001916111f4565b820191906000526020600020905b8154815290600101906020018083116111d757829003601f168201915b505050505081565b6000600160003373ffffffffffffffffffffffffffffffffffffffff1673ffffffffffffffffffffffffffffffffffffffff16815260200190815260200160002060020160009054906101000a900460ff1660038111156112605761125f613ba4565b5b905090565b6000600381111561127957611278613ba4565b5b600160003373ffffffffffffffffffffffffffffffffffffffff1673ffffffffffffffffffffffffffffffffffffffff16815260200190815260200160002060020160009054906101000a900460ff1660038111156112db576112da613ba4565b5b1461131b576040517f08c379a0000000000000000000000000000000000000000000000000000000008152600401611312906145dd565b60405180910390fd5b60008160038111156113305761132f613ba4565b5b1180156113505750600381600381111561134d5761134c613ba4565b5b11155b61138f576040517f08c379a000000000000000000000000000000000000000000000000000000000815260040161138690614649565b60405180910390fd5b60405180608001604052808481526020018381526020018260038111156113b9576113b8613ba4565b5b81526020013373ffffffffffffffffffffffffffffffffffffffff16815250600160003373ffffffffffffffffffffffffffffffffffffffff1673ffffffffffffffffffffffffffffffffffffffff168152602001908152602001600020600082015181600001908161142c91906144bf565b50602082015181600101908161144291906144bf565b5060408201518160020160006101000a81548160ff0219169083600381111561146e5761146d613ba4565b5b021790555060608201518160020160016101000a81548173ffffffffffffffffffffffffffffffffffffffff021916908373ffffffffffffffffffffffffffffffffffffffff16021790555090505060006114c88261311e565b90503373ffffffffffffffffffffffffffffffffffffffff167f92822564bab8864c3a47b34e8d23fbce5c46234eb5da261f94087b995ac0f33b8260405161151091906146b5565b60405180910390a250505050565b6002600381111561153257611531613ba4565b5b600160003373ffffffffffffffffffffffffffffffffffffffff1673ffffffffffffffffffffffffffffffffffffffff16815260200190815260200160002060020160009054906101000a900460ff16600381111561159457611593613ba4565b5b146115d4576040517f08c379a00000000000000000000000000000000000000000000000000000000081526004016115cb9061475c565b60405180910390fd5b6060601286101561161c576040518060400160405280600481526020017f4869676800000000000000000000000000000000000000000000000000000000815250905061169c565b6032861115611662576040518060400160405280600681526020017f4d656469756d0000000000000000000000000000000000000000000000000000815250905061169b565b6040518060400160405280600381526020017f4c6f77000000000000000000000000000000000000000000000000000000000081525090505b5b600460008154809291906116af9061403b565b919050555060405180610160016040528060045481526020018881526020018781526020018681526020016040518060400160405280600781526020017f6d697373696e670000000000000000000000000000000000000000000000000081525081526020018581526020018481526020018381526020018281526020013373ffffffffffffffffffffffffffffffffffffffff168152602001600073ffffffffffffffffffffffffffffffffffffffff1681525060056000600454815260200190815260200160002060008201518160000155602082015181600101908161179891906144bf565b50604082015181600201556060820151816003015560808201518160040190816117c291906144bf565b5060a08201518160050190816117d891906144bf565b5060c08201518160060190816117ee91906144bf565b5060e082015181600701908161180491906144bf565b5061010082015181600801908161181b91906144bf565b506101208201518160090160006101000a81548173ffffffffffffffffffffffffffffffffffffffff021916908373ffffffffffffffffffffffffffffffffffffffff16021790555061014082015181600a0160006101000a81548173ffffffffffffffffffffffffffffffffffffffff021916908373ffffffffffffffffffffffffffffffffffffffff1602179055509050506008836040516118bf91906147b8565b908152602001604051809103902060009054906101000a900460ff1661194c5760078390806001815401808255809150506001900390600052602060002001600090919091909150908161191391906144bf565b50600160088460405161192691906147b8565b908152602001604051809103902060006101000a81548160ff0219169083151502179055505b60068360405161195c91906147b8565b9081526020016040518091039020600081548092919061197b9061403b565b91905055507f842d1d398ebda11c4cde1217638380d3ae168866b7e5de7850053d8e80c973ee6004548883336040516119b794939291906147cf565b60405180910390a150505050505050565b6000600160003373ffffffffffffffffffffffffffffffffffffffff1673ffffffffffffffffffffffffffffffffffffffff16815260200190815260200160002060020160009054906101000a900460ff16905090565b6060806000806000600160008773ffffffffffffffffffffffffffffffffffffffff1673ffffffffffffffffffffffffffffffffffffffff168152602001908152602001600020604051806080016040529081600082018054611a819061400a565b80601f0160208091040260200160405190810160405280929190818152602001828054611aad9061400a565b8015611afa5780601f10611acf57610100808354040283529160200191611afa565b820191906000526020600020905b815481529060010190602001808311611add57829003601f168201915b50505050508152602001600182018054611b139061400a565b80601f0160208091040260200160405190810160405280929190818152602001828054611b3f9061400a565b8015611b8c5780601f10611b6157610100808354040283529160200191611b8c565b820191906000526020600020905b815481529060010190602001808311611b6f57829003601f168201915b505050505081526020016002820160009054906101000a900460ff166003811115611bba57611bb9613ba4565b5b6003811115611bcc57611bcb613ba4565b5b81526020016002820160019054906101000a900473ffffffffffffffffffffffffffffffffffffffff1673ffffffffffffffffffffffffffffffffffffffff1673ffffffffffffffffffffffffffffffffffffffff1681525050905080600001518160200151826040015183606001519450945094509450509193509193565b60008054906101000a900473ffffffffffffffffffffffffffffffffffffffff1681565b60045481565b6001602052806000526040600020600091509050806000018054611c999061400a565b80601f0160208091040260200160405190810160405280929190818152602001828054611cc59061400a565b8015611d125780601f10611ce757610100808354040283529160200191611d12565b820191906000526020600020905b815481529060010190602001808311611cf557829003601f168201915b505050505090806001018054611d279061400a565b80601f0160208091040260200160405190810160405280929190818152602001828054611d539061400a565b8015611da05780601f10611d7557610100808354040283529160200191611da0565b820191906000526020600020905b815481529060010190602001808311611d8357829003601f168201915b5050505050908060020160009054906101000a900460ff16908060020160019054906101000a900473ffffffffffffffffffffffffffffffffffffffff16905084565b60606000600280549050905060008167ffffffffffffffff811115611e0b57611e0a6132c7565b5b604051908082528060200260200182016040528015611e3e57816020015b6060815260200190600190039081611e295790505b50905060005b82811015611f2b5760028181548110611e6057611e5f613fac565b5b90600052602060002090600402016001018054611e7c9061400a565b80601f0160208091040260200160405190810160405280929190818152602001828054611ea89061400a565b8015611ef55780601f10611eca57610100808354040283529160200191611ef5565b820191906000526020600020905b815481529060010190602001808311611ed857829003601f168201915b5050505050828281518110611f0d57611f0c613fac565b5b60200260200101819052508080611f239061403b565b915050611e44565b50809250505090565b60606000606080600080600560008881526020019081526020016000206040518061016001604052908160008201548152602001600182018054611f779061400a565b80601f0160208091040260200160405190810160405280929190818152602001828054611fa39061400a565b8015611ff05780601f10611fc557610100808354040283529160200191611ff0565b820191906000526020600020905b815481529060010190602001808311611fd357829003601f168201915b50505050508152602001600282015481526020016003820154815260200160048201805461201d9061400a565b80601f01602080910402602001604051908101604052809291908181526020018280546120499061400a565b80156120965780601f1061206b57610100808354040283529160200191612096565b820191906000526020600020905b81548152906001019060200180831161207957829003601f168201915b505050505081526020016005820180546120af9061400a565b80601f01602080910402602001604051908101604052809291908181526020018280546120db9061400a565b80156121285780601f106120fd57610100808354040283529160200191612128565b820191906000526020600020905b81548152906001019060200180831161210b57829003601f168201915b505050505081526020016006820180546121419061400a565b80601f016020809104026020016040519081016040528092919081815260200182805461216d9061400a565b80156121ba5780601f1061218f576101008083540402835291602001916121ba565b820191906000526020600020905b81548152906001019060200180831161219d57829003601f168201915b505050505081526020016007820180546121d39061400a565b80601f01602080910402602001604051908101604052809291908181526020018280546121ff9061400a565b801561224c5780601f106122215761010080835404028352916020019161224c565b820191906000526020600020905b81548152906001019060200180831161222f57829003601f168201915b505050505081526020016008820180546122659061400a565b80601f01602080910402602001604051908101604052809291908181526020018280546122919061400a565b80156122de5780601f106122b3576101008083540402835291602001916122de565b820191906000526020600020905b8154815290600101906020018083116122c157829003601f168201915b505050505081526020016009820160009054906101000a900473ffffffffffffffffffffffffffffffffffffffff1673ffffffffffffffffffffffffffffffffffffffff1673ffffffffffffffffffffffffffffffffffffffff168152602001600a820160009054906101000a900473ffffffffffffffffffffffffffffffffffffffff1673ffffffffffffffffffffffffffffffffffffffff1673ffffffffffffffffffffffffffffffffffffffff16815250509050806020015181604001518260a00151836101000151846101200151955095509550955095505091939590929450565b6006818051602081018201805184825260208301602085012081835280955050505050506000915090505481565b6008818051602081018201805184825260208301602085012081835280955050505050506000915054906101000a900460ff1681565b600080600381111561243d5761243c613ba4565b5b600160008473ffffffffffffffffffffffffffffffffffffffff1673ffffffffffffffffffffffffffffffffffffffff16815260200190815260200160002060020160009054906101000a900460ff16600381111561249f5761249e613ba4565b5b14159050919050565b606080600060078054905067ffffffffffffffff8111156124cc576124cb6132c7565b5b6040519080825280602002602001820160405280156124fa5781602001602082028036833780820191505090505b50905060005b60078054905081101561257b5760066007828154811061252357612522613fac565b5b9060005260206000200160405161253a91906148a5565b90815260200160405180910390205482828151811061255c5761255b613fac565b5b60200260200101818152505080806125739061403b565b915050612500565b5060078181805480602002602001604051908101604052809291908181526020016000905b8282101561264c5783829060005260206000200180546125bf9061400a565b80601f01602080910402602001604051908101604052809291908181526020018280546125eb9061400a565b80156126385780601f1061260d57610100808354040283529160200191612638565b820191906000526020600020905b81548152906001019060200180831161261b57829003601f168201915b5050505050815260200190600101906125a0565b50505050915092509250509091565b6001600381111561266f5761266e613ba4565b5b600160003373ffffffffffffffffffffffffffffffffffffffff1673ffffffffffffffffffffffffffffffffffffffff16815260200190815260200160002060020160009054906101000a900460ff1660038111156126d1576126d0613ba4565b5b14612711576040517f08c379a00000000000000000000000000000000000000000000000000000000081526004016127089061492e565b60405180910390fd5b60038081111561272457612723613ba4565b5b600160008373ffffffffffffffffffffffffffffffffffffffff1673ffffffffffffffffffffffffffffffffffffffff16815260200190815260200160002060020160009054906101000a900460ff16600381111561278657612785613ba4565b5b146127c6576040517f08c379a00000000000000000000000000000000000000000000000000000000081526004016127bd906149c0565b60405180910390fd5b6000821180156127d857506004548211155b612817576040517f08c379a000000000000000000000000000000000000000000000000000000000815260040161280e90614a2c565b60405180910390fd5b8060056000848152602001908152602001600020600a0160006101000a81548173ffffffffffffffffffffffffffffffffffffffff021916908373ffffffffffffffffffffffffffffffffffffffff1602179055507f331654419c673cd3af2cda5074231ad56d4c35bee9bf59d82789df8ded368d0d828260405161289d929190614a4c565b60405180910390a15050565b6060600980548060200260200160405190810160405280929190818152602001828054801561292d57602002820191906000526020600020905b8160009054906101000a900473ffffffffffffffffffffffffffffffffffffffff1673ffffffffffffffffffffffffffffffffffffffff16815260200190600101908083116128e3575b5050505050905090565b6002600381111561294b5761294a613ba4565b5b600160003373ffffffffffffffffffffffffffffffffffffffff1673ffffffffffffffffffffffffffffffffffffffff16815260200190815260200160002060020160009054906101000a900460ff1660038111156129ad576129ac613ba4565b5b146129ed576040517f08c379a00000000000000000000000000000000000000000000000000000000081526004016129e490614ae7565b60405180910390fd5b60016003811115612a0157612a00613ba4565b5b600160008373ffffffffffffffffffffffffffffffffffffffff1673ffffffffffffffffffffffffffffffffffffffff16815260200190815260200160002060020160009054906101000a900460ff166003811115612a6357612a62613ba4565b5b14612aa3576040517f08c379a0000000000000000000000000000000000000000000000000000000008152600401612a9a90614b53565b60405180910390fd5b600382604051612ab391906147b8565b908152602001604051809103902060009054906101000a900460ff1615612b0f576040517f08c379a0000000000000000000000000000000000000000000000000000000008152600401612b0690614bbf565b60405180910390fd5b600083118015612b2157506004548311155b612b60576040517f08c379a0000000000000000000000000000000000000000000000000000000008152600401612b5790614a2c565b60405180910390fd5b662386f26fc100003414612ba9576040517f08c379a0000000000000000000000000000000000000000000000000000000008152600401612ba090614c2b565b60405180910390fd5b600260405180608001604052808581526020018481526020013373ffffffffffffffffffffffffffffffffffffffff1681526020018373ffffffffffffffffffffffffffffffffffffffff168152509080600181540180825580915050600190039060005260206000209060040201600090919091909150600082015181600001556020820151816001019081612c4091906144bf565b5060408201518160020160006101000a81548173ffffffffffffffffffffffffffffffffffffffff021916908373ffffffffffffffffffffffffffffffffffffffff16021790555060608201518160030160006101000a81548173ffffffffffffffffffffffffffffffffffffffff021916908373ffffffffffffffffffffffffffffffffffffffff16021790555050506001600383604051612ce391906147b8565b908152602001604051809103902060006101000a81548160ff0219169083151502179055508073ffffffffffffffffffffffffffffffffffffffff166108fc349081150290604051600060405180830381858888f19350505050158015612d4e573d6000803e3d6000fd5b50505050565b6005602052806000526040600020600091509050806000015490806001018054612d7d9061400a565b80601f0160208091040260200160405190810160405280929190818152602001828054612da99061400a565b8015612df65780601f10612dcb57610100808354040283529160200191612df6565b820191906000526020600020905b815481529060010190602001808311612dd957829003601f168201915b505050505090806002015490806003015490806004018054612e179061400a565b80601f0160208091040260200160405190810160405280929190818152602001828054612e439061400a565b8015612e905780601f10612e6557610100808354040283529160200191612e90565b820191906000526020600020905b815481529060010190602001808311612e7357829003601f168201915b505050505090806005018054612ea59061400a565b80601f0160208091040260200160405190810160405280929190818152602001828054612ed19061400a565b8015612f1e5780601f10612ef357610100808354040283529160200191612f1e565b820191906000526020600020905b815481529060010190602001808311612f0157829003601f168201915b505050505090806006018054612f339061400a565b80601f0160208091040260200160405190810160405280929190818152602001828054612f5f9061400a565b8015612fac5780601f10612f8157610100808354040283529160200191612fac565b820191906000526020600020905b815481529060010190602001808311612f8f57829003601f168201915b505050505090806007018054612fc19061400a565b80601f0160208091040260200160405190810160405280929190818152602001828054612fed9061400a565b801561303a5780601f1061300f5761010080835404028352916020019161303a565b820191906000526020600020905b81548152906001019060200180831161301d57829003601f168201915b50505050509080600801805461304f9061400a565b80601f016020809104026020016040519081016040528092919081815260200182805461307b9061400a565b80156130c85780601f1061309d576101008083540402835291602001916130c8565b820191906000526020600020905b8154815290600101906020018083116130ab57829003601f168201915b5050505050908060090160009054906101000a900473ffffffffffffffffffffffffffffffffffffffff169080600a0160009054906101000a900473ffffffffffffffffffffffffffffffffffffffff1690508b565b60606001600381111561313457613133613ba4565b5b82600381111561314757613146613ba4565b5b03613189576040518060400160405280600581526020017f41646d696e0000000000000000000000000000000000000000000000000000008152509050613293565b6002600381111561319d5761319c613ba4565b5b8260038111156131b0576131af613ba4565b5b036131f2576040518060400160405280600881526020017f5265706f727465720000000000000000000000000000000000000000000000008152509050613293565b60038081111561320557613204613ba4565b5b82600381111561321857613217613ba4565b5b0361325a576040518060400160405280600c81526020017f496e76657374696761746f7200000000000000000000000000000000000000008152509050613293565b6040518060400160405280600481526020017f4e6f6e650000000000000000000000000000000000000000000000000000000081525090505b919050565b6000604051905090565b600080fd5b600080fd5b600080fd5b600080fd5b6000601f19601f8301169050919050565b7f4e487b7100000000000000000000000000000000000000000000000000000000600052604160045260246000fd5b6132ff826132b6565b810181811067ffffffffffffffff8211171561331e5761331d6132c7565b5b80604052505050565b6000613331613298565b905061333d82826132f6565b919050565b600067ffffffffffffffff82111561335d5761335c6132c7565b5b613366826132b6565b9050602081019050919050565b82818337600083830152505050565b600061339561339084613342565b613327565b9050828152602081018484840111156133b1576133b06132b1565b5b6133bc848285613373565b509392505050565b600082601f8301126133d9576133d86132ac565b5b81356133e9848260208601613382565b91505092915050565b600060208284031215613408576134076132a2565b5b600082013567ffffffffffffffff811115613426576134256132a7565b5b613432848285016133c4565b91505092915050565b60008115159050919050565b6134508161343b565b82525050565b600060208201905061346b6000830184613447565b92915050565b600081519050919050565b600082825260208201905092915050565b6000819050602082019050919050565b6000819050919050565b6134b08161349d565b82525050565b60006134c283836134a7565b60208301905092915050565b6000602082019050919050565b60006134e682613471565b6134f0818561347c565b93506134fb8361348d565b8060005b8381101561352c57815161351388826134b6565b975061351e836134ce565b9250506001810190506134ff565b5085935050505092915050565b600081519050919050565b600082825260208201905092915050565b6000819050602082019050919050565b600081519050919050565b600082825260208201905092915050565b60005b8381101561359f578082015181840152602081019050613584565b60008484015250505050565b60006135b682613565565b6135c08185613570565b93506135d0818560208601613581565b6135d9816132b6565b840191505092915050565b60006135f083836135ab565b905092915050565b6000602082019050919050565b600061361082613539565b61361a8185613544565b93508360208202850161362c85613555565b8060005b85811015613668578484038952815161364985826135e4565b9450613654836135f8565b925060208a01995050600181019050613630565b50829750879550505050505092915050565b600081519050919050565b600082825260208201905092915050565b6000819050602082019050919050565b600073ffffffffffffffffffffffffffffffffffffffff82169050919050565b60006136d1826136a6565b9050919050565b6136e1816136c6565b82525050565b60006136f383836136d8565b60208301905092915050565b6000602082019050919050565b60006137178261367a565b6137218185613685565b935061372c83613696565b8060005b8381101561375d57815161374488826136e7565b975061374f836136ff565b925050600181019050613730565b5085935050505092915050565b6000610120820190508181036000830152613785818c6134db565b90508181036020830152613799818b613605565b905081810360408301526137ad818a6134db565b905081810360608301526137c181896134db565b905081810360808301526137d58188613605565b905081810360a08301526137e98187613605565b905081810360c08301526137fd8186613605565b905081810360e08301526138118185613605565b9050818103610100830152613826818461370c565b90509a9950505050505050505050565b61383f8161349d565b811461384a57600080fd5b50565b60008135905061385c81613836565b92915050565b60008060408385031215613879576138786132a2565b5b60006138878582860161384d565b925050602083013567ffffffffffffffff8111156138a8576138a76132a7565b5b6138b4858286016133c4565b9150509250929050565b6000602082840312156138d4576138d36132a2565b5b60006138e28482850161384d565b91505092915050565b6138f4816136c6565b82525050565b600060208201905061390f60008301846138eb565b92915050565b61391e8161349d565b82525050565b600082825260208201905092915050565b600061394082613565565b61394a8185613924565b935061395a818560208601613581565b613963816132b6565b840191505092915050565b60006080820190506139836000830187613915565b81810360208301526139958186613935565b90506139a460408301856138eb565b6139b160608301846138eb565b95945050505050565b600060208201905081810360008301526139d48184613935565b905092915050565b60006020820190506139f16000830184613915565b92915050565b60048110613a0457600080fd5b50565b600081359050613a16816139f7565b92915050565b600080600060608486031215613a3557613a346132a2565b5b600084013567ffffffffffffffff811115613a5357613a526132a7565b5b613a5f868287016133c4565b935050602084013567ffffffffffffffff811115613a8057613a7f6132a7565b5b613a8c868287016133c4565b9250506040613a9d86828701613a07565b9150509250925092565b60008060008060008060c08789031215613ac457613ac36132a2565b5b600087013567ffffffffffffffff811115613ae257613ae16132a7565b5b613aee89828a016133c4565b9650506020613aff89828a0161384d565b9550506040613b1089828a0161384d565b945050606087013567ffffffffffffffff811115613b3157613b306132a7565b5b613b3d89828a016133c4565b935050608087013567ffffffffffffffff811115613b5e57613b5d6132a7565b5b613b6a89828a016133c4565b92505060a087013567ffffffffffffffff811115613b8b57613b8a6132a7565b5b613b9789828a016133c4565b9150509295509295509295565b7f4e487b7100000000000000000000000000000000000000000000000000000000600052602160045260246000fd5b60048110613be457613be3613ba4565b5b50565b6000819050613bf582613bd3565b919050565b6000613c0582613be7565b9050919050565b613c1581613bfa565b82525050565b6000602082019050613c306000830184613c0c565b92915050565b613c3f816136c6565b8114613c4a57600080fd5b50565b600081359050613c5c81613c36565b92915050565b600060208284031215613c7857613c776132a2565b5b6000613c8684828501613c4d565b91505092915050565b60006080820190508181036000830152613ca98187613935565b90508181036020830152613cbd8186613935565b9050613ccc6040830185613c0c565b613cd960608301846138eb565b95945050505050565b60006020820190508181036000830152613cfc8184613605565b905092915050565b600060a0820190508181036000830152613d1e8188613935565b9050613d2d6020830187613915565b8181036040830152613d3f8186613935565b90508181036060830152613d538185613935565b9050613d6260808301846138eb565b9695505050505050565b60006040820190508181036000830152613d868185613605565b90508181036020830152613d9a81846134db565b90509392505050565b60008060408385031215613dba57613db96132a2565b5b6000613dc88582860161384d565b9250506020613dd985828601613c4d565b9150509250929050565b60006020820190508181036000830152613dfd818461370c565b905092915050565b600080600060608486031215613e1e57613e1d6132a2565b5b6000613e2c8682870161384d565b935050602084013567ffffffffffffffff811115613e4d57613e4c6132a7565b5b613e59868287016133c4565b9250506040613e6a86828701613c4d565b9150509250925092565b600061016082019050613e8a600083018e613915565b8181036020830152613e9c818d613935565b9050613eab604083018c613915565b613eb8606083018b613915565b8181036080830152613eca818a613935565b905081810360a0830152613ede8189613935565b905081810360c0830152613ef28188613935565b905081810360e0830152613f068187613935565b9050818103610100830152613f1b8186613935565b9050613f2b6101208301856138eb565b613f396101408301846138eb565b9c9b505050505050505050505050565b7f4e487b7100000000000000000000000000000000000000000000000000000000600052601160045260246000fd5b6000613f838261349d565b9150613f8e8361349d565b9250828201905080821115613fa657613fa5613f49565b5b92915050565b7f4e487b7100000000000000000000000000000000000000000000000000000000600052603260045260246000fd5b7f4e487b7100000000000000000000000000000000000000000000000000000000600052602260045260246000fd5b6000600282049050600182168061402257607f821691505b60208210810361403557614034613fdb565b5b50919050565b60006140468261349d565b91507fffffffffffffffffffffffffffffffffffffffffffffffffffffffffffffffff820361407857614077613f49565b5b600182019050919050565b7f4f6e6c792041646d696e2063616e207570646174652073746174757300000000600082015250565b60006140b9601c83613924565b91506140c482614083565b602082019050919050565b600060208201905081810360008301526140e8816140ac565b9050919050565b7f4d697373696e6720706572736f6e206e6f7420666f756e640000000000000000600082015250565b6000614125601883613924565b9150614130826140ef565b602082019050919050565b6000602082019050818103600083015261415481614118565b9050919050565b600081905092915050565b60008190508160005260206000209050919050565b600081546141888161400a565b614192818661415b565b945060018216600081146141ad57600181146141c2576141f5565b60ff19831686528115158202860193506141f5565b6141cb85614166565b60005b838110156141ed578154818901526001820191506020810190506141ce565b838801955050505b50505092915050565b600061420a828461417b565b915081905092915050565b7f53746174757320616c7265616479206d61726b656420617320666f756e640000600082015250565b600061424b601e83613924565b915061425682614215565b602082019050919050565b6000602082019050818103600083015261427a8161423e565b9050919050565b7f496e76616c696420737461747573207570646174652e204f6e6c792027666f7560008201527f6e642720697320616c6c6f7765642e0000000000000000000000000000000000602082015250565b60006142dd602f83613924565b91506142e882614281565b604082019050919050565b6000602082019050818103600083015261430c816142d0565b9050919050565b60008190508160005260206000209050919050565b60006020601f8301049050919050565b600082821b905092915050565b6000600883026143757fffffffffffffffffffffffffffffffffffffffffffffffffffffffffffffffff82614338565b61437f8683614338565b95508019841693508086168417925050509392505050565b6000819050919050565b60006143bc6143b76143b28461349d565b614397565b61349d565b9050919050565b6000819050919050565b6143d6836143a1565b6143ea6143e2826143c3565b848454614345565b825550505050565b600090565b6143ff6143f2565b61440a8184846143cd565b505050565b5b8181101561442e576144236000826143f7565b600181019050614410565b5050565b601f8211156144735761444481614313565b61444d84614328565b8101602085101561445c578190505b61447061446885614328565b83018261440f565b50505b505050565b600082821c905092915050565b600061449660001984600802614478565b1980831691505092915050565b60006144af8383614485565b9150826002028217905092915050565b6144c882613565565b67ffffffffffffffff8111156144e1576144e06132c7565b5b6144eb825461400a565b6144f6828285614432565b600060209050601f8311600181146145295760008415614517578287015190505b61452185826144a3565b865550614589565b601f19841661453786614313565b60005b8281101561455f5784890151825560018201915060208501945060208101905061453a565b8683101561457c5784890151614578601f891682614485565b8355505b6001600288020188555050505b505050505050565b7f5573657220616c72656164792072656769737465726564000000000000000000600082015250565b60006145c7601783613924565b91506145d282614591565b602082019050919050565b600060208201905081810360008301526145f6816145ba565b9050919050565b7f496e76616c696420726f6c650000000000000000000000000000000000000000600082015250565b6000614633600c83613924565b915061463e826145fd565b602082019050919050565b6000602082019050818103600083015261466281614626565b9050919050565b7f526567697374726174696f6e207375636365737366756c000000000000000000600082015250565b600061469f601783613924565b91506146aa82614669565b602082019050919050565b600060408201905081810360008301526146ce81614692565b905081810360208301526146e28184613935565b905092915050565b7f4f6e6c79207265706f72746572732063616e20616464206d697373696e67207060008201527f6572736f6e730000000000000000000000000000000000000000000000000000602082015250565b6000614746602683613924565b9150614751826146ea565b604082019050919050565b6000602082019050818103600083015261477581614739565b9050919050565b600081905092915050565b600061479282613565565b61479c818561477c565b93506147ac818560208601613581565b80840191505092915050565b60006147c48284614787565b915081905092915050565b60006080820190506147e46000830187613915565b81810360208301526147f68186613935565b9050818103604083015261480a8185613935565b905061481960608301846138eb565b95945050505050565b6000815461482f8161400a565b614839818661477c565b9450600182166000811461485457600181146148695761489c565b60ff198316865281151582028601935061489c565b61487285614313565b60005b8381101561489457815481890152600182019150602081019050614875565b838801955050505b50505092915050565b60006148b18284614822565b915081905092915050565b7f4f6e6c792061646d696e2063616e2061737369676e20696e766573746967617460008201527f6f72730000000000000000000000000000000000000000000000000000000000602082015250565b6000614918602383613924565b9150614923826148bc565b604082019050919050565b600060208201905081810360008301526149478161490b565b9050919050565b7f4d7573742061737369676e20746f20612076616c696420496e7665737469676160008201527f746f720000000000000000000000000000000000000000000000000000000000602082015250565b60006149aa602383613924565b91506149b58261494e565b604082019050919050565b600060208201905081810360008301526149d98161499d565b9050919050565b7f496e76616c696420636173652049440000000000000000000000000000000000600082015250565b6000614a16600f83613924565b9150614a21826149e0565b602082019050919050565b60006020820190508181036000830152614a4581614a09565b9050919050565b6000604082019050614a616000830185613915565b614a6e60208301846138eb565b9392505050565b7f4f6e6c79207265706f72746572732063616e20626f6f6b206170706f696e746d60008201527f656e747300000000000000000000000000000000000000000000000000000000602082015250565b6000614ad1602483613924565b9150614adc82614a75565b604082019050919050565b60006020820190508181036000830152614b0081614ac4565b9050919050565b7f496e76616c69642061646d696e20616464726573730000000000000000000000600082015250565b6000614b3d601583613924565b9150614b4882614b07565b602082019050919050565b60006020820190508181036000830152614b6c81614b30565b9050919050565b7f536c6f7420616c726561647920626f6f6b656400000000000000000000000000600082015250565b6000614ba9601383613924565b9150614bb482614b73565b602082019050919050565b60006020820190508181036000830152614bd881614b9c565b9050919050565b7f4d7573742073656e642065786163746c7920302e303120455448000000000000600082015250565b6000614c15601a83613924565b9150614c2082614bdf565b602082019050919050565b60006020820190508181036000830152614c4481614c08565b905091905056fea2646970667358221220b43c65bf345066b6f5d8624b8c003aa57ea6fc67f0f77ee2f027630f2223f6a664736f6c63430008100033",
  "immutableReferences": {},
  "source": "// SPDX-License-Identifier: MIT\npragma solidity >=0.8.0;\n\ncontract MissingPersonsManagement {\n\n    enum Role { None, Admin, Reporter, Investigator }\n\n    struct User {\n        string nid;\n        string name;\n        Role role;\n        address addr;\n    }\n\n    address public owner;\n    mapping(address => User) public users;\n\n    event UserRegistered(address indexed user, string message, string roleName);\n\n    struct MissingPerson {\n        uint serialNumber;\n        string name;\n        uint age;\n        uint height;\n        string status; // \"missing\" or \"found\"\n        string description;\n        string lastSeenLocation; // division\n        string relativeContact;\n        string urgency;\n        address reporter;\n        address assignedInvestigator;\n    }\n\n    event InvestigatorAssigned(uint serialNumber, address investigator);\n    event MissingPersonAdded(uint serialNumber, string name, string urgency, address reporter);\n\n    struct Appointment {\n    uint caseId;\n    string slot;\n    address reporter;\n    address admin;\n    }\n\n    Appointment[] public appointments;\n    mapping(string => bool) public isSlotBooked; // Prevent double-booking\n\n\n\n\n    uint public missingPersonCount = 0;\n    mapping(uint => MissingPerson) public missingPersons;\n\n    // NEW: For area-wise count tracking\n    mapping(string => uint256) public areaWiseCount;\n    string[] public allAreas;\n    mapping(string => bool) public isAreaAdded;\n\n    constructor() {\n        owner = msg.sender;\n        // Deployer starts unregistered (Role.None)\n    }\n\n    modifier onlyUnregistered() {\n        require(users[msg.sender].role == Role.None, \"User already registered\");\n        _;\n    }\n\n    function registerUser(string memory nid, string memory name, Role role) public onlyUnregistered {\n        require(uint(role) > 0 && uint(role) <= 3, \"Invalid role\"); // Role must not be None\n        users[msg.sender] = User(nid, name, role, msg.sender);\n\n        string memory roleName = getRoleName(role);\n        emit UserRegistered(msg.sender, \"Registration successful\", roleName);\n    }\n\n    function getRoleName(Role role) internal pure returns (string memory) {\n    if (role == Role.Admin) return \"Admin\";\n    if (role == Role.Reporter) return \"Reporter\";\n    if (role == Role.Investigator) return \"Investigator\";\n    return \"None\";\n}\n\n\n    function getMyRole() public view returns (Role) {\n        return users[msg.sender].role;\n    }\n\n    function getMyRoleUint() public view returns (uint) {\n        return uint(users[msg.sender].role);\n    }\n\n    function getUser(address userAddr) public view returns (string memory, string memory, Role, address) {\n        User memory user = users[userAddr];\n        return (user.nid, user.name, user.role, user.addr);\n    }\n\n    function isRegistered(address userAddr) public view returns (bool) {\n        return users[userAddr].role != Role.None;\n    }\n\n    function addMissingPerson(\n        string memory name,\n        uint age,\n        uint height,\n        string memory description,\n        string memory lastSeenLocation,\n        string memory relativeContact\n    ) public {\n        require(users[msg.sender].role == Role.Reporter, \"Only reporters can add missing persons\");\n\n        string memory urgency;\n        if (age < 18) {\n            urgency = \"High\";\n        } else if (age > 50) {\n            urgency = \"Medium\";\n        } else {\n            urgency = \"Low\";\n        }\n\n        missingPersonCount++;\n        missingPersons[missingPersonCount] = MissingPerson(\n            missingPersonCount,\n            name,\n            age,\n            height,\n            \"missing\",  // status\n            description,\n            lastSeenLocation,\n            relativeContact,\n            urgency,\n            msg.sender,  // reporter\n            address(0)   // assigned investigator\n        );\n\n        // NEW: Update area-wise count\n        if (!isAreaAdded[lastSeenLocation]) {\n            allAreas.push(lastSeenLocation);\n            isAreaAdded[lastSeenLocation] = true;\n        }\n        areaWiseCount[lastSeenLocation]++;\n\n        emit MissingPersonAdded(missingPersonCount, name, urgency, msg.sender);\n    }\n\n    function getMissingPerson(uint serialNumber) public view returns (string memory, uint, string memory, string memory, address) {\n        MissingPerson memory mp = missingPersons[serialNumber];\n        return (mp.name, mp.age, mp.description, mp.urgency, mp.reporter);\n    }\n\n    function updateMissingPersonStatus(uint serialNumber, string memory newStatus) public {\n        require(users[msg.sender].role == Role.Admin, \"Only Admin can update status\");\n\n        MissingPerson storage person = missingPersons[serialNumber];\n        require(bytes(person.name).length != 0, \"Missing person not found\");\n        require(keccak256(bytes(person.status)) != keccak256(bytes(\"found\")), \"Status already marked as found\");\n\n        // Only allow \"found\" as valid update\n        require(\n            keccak256(bytes(newStatus)) == keccak256(bytes(\"found\")),\n            \"Invalid status update. Only 'found' is allowed.\"\n        );\n\n        person.status = newStatus;\n    }\n\n    function getAllMissingPersons() public view returns (\n        uint[] memory ids,\n        string[] memory names,\n        uint[] memory ages,\n        uint[] memory heights,\n        string[] memory descriptions,\n        string[] memory lastSeenLocations,\n        string[] memory relativeContacts,\n        string[] memory statuses,\n        address[] memory investigators\n    ) {\n        uint count = missingPersonCount;\n        ids = new uint[](count);\n        names = new string[](count);\n        ages = new uint[](count);\n        heights = new uint[](count);\n        descriptions = new string[](count);\n        lastSeenLocations = new string[](count);\n        relativeContacts = new string[](count);\n        statuses = new string[](count);\n        investigators = new address[](count);\n\n        for (uint i = 0; i < count; i++) {\n            uint serial = i + 1;\n            MissingPerson storage p = missingPersons[serial];\n            ids[i] = p.serialNumber;\n            names[i] = p.name;\n            ages[i] = p.age;\n            heights[i] = p.height;\n            descriptions[i] = p.description;\n            lastSeenLocations[i] = p.lastSeenLocation;\n            relativeContacts[i] = p.relativeContact;\n            statuses[i] = p.status;\n            investigators[i] = p.assignedInvestigator;\n        }\n    }\n\n    function assignInvestigator(uint caseId, address investigator) public {\n        require(users[msg.sender].role == Role.Admin, \"Only admin can assign investigators\");\n        require(users[investigator].role == Role.Investigator, \"Must assign to a valid Investigator\");\n        require(caseId > 0 && caseId <= missingPersonCount, \"Invalid case ID\");\n\n        missingPersons[caseId].assignedInvestigator = investigator;\n        emit InvestigatorAssigned(caseId, investigator);\n    }\n\n    // NEW: Get area-wise count list\n    function getAreaWiseCounts() public view returns (string[] memory, uint256[] memory) {\n        uint256[] memory counts = new uint256[](allAreas.length);\n        for (uint i = 0; i < allAreas.length; i++) {\n            counts[i] = areaWiseCount[allAreas[i]];\n        }\n        return (allAreas, counts);\n    }\n\n\n    function bookAppointment(uint caseId, string memory slot, address admin) public payable {\n    require(users[msg.sender].role == Role.Reporter, \"Only reporters can book appointments\");\n    require(users[admin].role == Role.Admin, \"Invalid admin address\");\n    require(!isSlotBooked[slot], \"Slot already booked\");\n    require(caseId > 0 && caseId <= missingPersonCount, \"Invalid case ID\");\n    require(msg.value == 0.01 ether, \"Must send exactly 0.01 ETH\"); // you can change this amount\n\n    appointments.push(Appointment(caseId, slot, msg.sender, admin));\n    isSlotBooked[slot] = true;\n\n    payable(admin).transfer(msg.value); // transfer payment to admin\n}\n\n\n\n\nfunction getBookedSlots() public view returns (string[] memory) {\n    uint len = appointments.length;\n    string[] memory slots = new string[](len);\n\n    for (uint i = 0; i < len; i++) {\n        slots[i] = appointments[i].slot;\n    }\n\n    return slots;\n}\naddress[] public adminList;\n\nfunction getAllAdmins() public view returns (address[] memory) {\n    return adminList;\n}\n\n\n}\n",
  "sourcePath": "/home/minhazul/Downloads/446 Project/contracts/MissingPersonsManagement.sol",
  "compiler": {
    "name": "solc",
    "version": "0.8.16+commit.07a7930e.Emscripten.clang"
  },
  "schemaVersion": "3.4.16",
  "updatedAt": "2025-05-03T11:09:22.113Z",
  "networkType": "ethereum",
  "devdoc": {
    "kind": "dev",
    "methods": {},
    "version": 1
  },
  "userdoc": {
    "kind": "user",
    "methods": {},
    "version": 1
  }
}